:100000000C9459050C94071B0C94E01A0C94810570
:100010000C9481050C9481050C9481050C94810548
:100020000C9481050C9481050C9481050C94810538
:100030000C9481050C9481050C9481050C94810528
:100040000C94961A0C9481050C94641A0C943E1A24
:100050000C9481050C9481050C9481050C94810508
:100060000C942E1B0C94810500000000003E5B4F99
:100070005B3E3E6B4F6B3E1C3E7C3E1C183C7E3C08
:10008000181C577D571C1C5E7F5E1C00183C180016
:10009000FFE7C3E7FF0018241800FFE7DBE7FF30A6
:1000A000483A060E2629792926407F050507407F14
:1000B00005253F5A3CE73C5A7F3E1C1C08081C1C87
:1000C0003E7F14227F22145F5F005F5F06097F017D
:1000D0007F006689956A606060606094A2FFA29468
:1000E00008047E040810207E201008082A1C080836
:1000F0001C2A08081E101010100C1E0C1E0C303884
:100100003E3830060E3E0E06000000000000005F84
:1001100000000007000700147F147F14242A7F2AA0
:100120001223130864623649562050000807030062
:10013000001C2241000041221C002A1C7F1C2A08AE
:10014000083E080800807030000808080808000011
:1001500060600020100804023E5149453E00427F85
:10016000400072494949462141494D331814127FD4
:100170001027454545393C4A494931412111090774
:100180003649494936464949291E000014000000F5
:1001900040340000000814224114141414140041C7
:1001A00022140802015909063E415D594E7C121184
:1001B000127C7F494949363E414141227F414141BC
:1001C0003E7F494949417F090909013E4141517337
:1001D0007F0808087F00417F41002040413F017FA8
:1001E000081422417F404040407F021C027F7F0470
:1001F00008107F3E4141413E7F090909063E4151B9
:10020000215E7F09192946264949493203017F01A8
:10021000033F4040403F1F2040201F3F4038403FA9
:10022000631408146303047804036159494D4300BF
:100230007F4141410204081020004141417F0402F6
:10024000010204404040404000030708002054548D
:1002500078407F284444383844444428384444286B
:100260007F385454541800087E090218A4A49C78BE
:100270007F0804047800447D40002040403D007F1A
:100280001028440000417F40007C047804787C08FA
:100290000404783844444438FC18242418182424CE
:1002A00018FC7C08040408485454542404043F44B3
:1002B000243C4040207C1C2040201C3C4030403CE2
:1002C00044281028444C9090907C4464544C440042
:1002D00008364100000077000000413608000201A6
:1002E0000204023C2623263C1EA1A161123A404092
:1002F000207A38545455592155557941225454780F
:1003000042215554784020545579400C1E527212A7
:100310003955555559395454545939555454580030
:1003200000457C410002457D420001457C407D1234
:1003300011127DF0282528F07C5455450020545496
:100340007C547C0A097F4932494949323A44444441
:100350003A324A4848303A4141217A3A424020787C
:10036000009DA0A07D3D4242423D3D4040403D3C7D
:1003700024FF2424487E4943662B2FFC2F2BFF09A2
:1003800029F620C0887E0903205454794100004496
:100390007D413048484A32384040227A007A0A0A81
:1003A000727D0D19317D2629292F282629292926F4
:1003B00030484D4020380808080808080808382F39
:1003C00010C8ACBA2F102834FA00007B00000814C3
:1003D0002A142222142A14085500550055AA55AA99
:1003E00055AAFF55FF55FF000000FF00101010FF39
:1003F00000141414FF001010FF00FF1010F010F094
:10040000141414FC001414F700FF0000FF00FF1484
:1004100014F404FC141417101F10101F101F1414D0
:10042000141F00101010F0000000001F101010101A
:100430001F10101010F010000000FF10101010100E
:1004400010101010FF10000000FF140000FF00FF4C
:1004500000001F10170000FC04F4141417101714E8
:1004600014F404F40000FF00F7141414141414140A
:10047000F700F7141414171410101F101F1414147D
:10048000F4141010F010F000001F101F0000001FE7
:1004900014000000FC140000F010F01010FF10FF1A
:1004A000141414FF141010101F00000000F010FFAF
:1004B000FFFFFFFFF0F0F0F0F0FFFFFF0000000093
:1004C00000FFFF0F0F0F0F0F3844443844FC4A4A17
:1004D0004A347E02020606027E027E0263554941CC
:1004E000633844443C04407E201E2006027E020203
:1004F00099A5E7A5991C2A492A1C4C7201724C3017
:100500004A4D4D303048784830BC625A463D3E49ED
:100510004949007E0101017E2A2A2A2A2A44445F91
:10052000444440514A444040444A51400000FF0185
:1005300003E080FF000008086B6B08361236243693
:10054000060F090F060000181800000010100030F8
:1005500040FF0101001F01011E00191D1712003C80
:100560003C3C3C0000000000000103070F1F3F7FE0
:100570000080C0E0F0F8FCFE000000002300260030
:100580002900000000080002010000030407000029
:1005900000000000000000000000240027002A00E6
:1005A000DB40A4A62EAFDA0281DA1281DA02818F53
:1005B0002000A1C8D300408DAED580A80102040858
:1005C00010204080010204081020010204081020BD
:1005D00000000000250028002B000404040404048B
:1005E00004040202020202020303030303030000E5
:1005F000600000000000000000000000000000E0BB
:100600000000000000000000000000000001E00009
:1006100000000000000000000000000001F00000E9
:10062000000000000000000000000003F0000000D7
:100630000000000000000000000007F000000000C3
:1006400000000000000000000007F80000000000AB
:1006500000000000000000000FF800000003C000D0
:100660007E000001E0007F0FF800000003C000FEE4
:10067000000001E000FFEFF800000003C000FE00F2
:100680000001E000FFFFF800000003C000F00000E0
:10069000000F007FFE7FC0000003C000F0000000DC
:1006A0000F003FFE7FF83FF1FBCFFCFEF3BC3DEFB8
:1006B000E01FFE7FFF7FFBFFDFFEFEFFBC3DEFE0A4
:1006C0001FC6FFFF7FFBFFDFFEFEFFBC3DEFE00F1D
:1006D000E3C7FE787BC3DE1EF0FFBC3DEF0007FFE3
:1006E00087FC787BC3DE1EF0F83C3DEF0001FFFF86
:1006F000F0007BC3C01EF0F03C3DEF0001F37FE053
:100700003FFBC3CFFEF0F03C3DEF0003E33F807FB3
:10071000FBC3DFFEF0F03C3DEF0007E73C00787BD9
:10072000C3DE1EF0F03C3DEF0007FFBE00787BC348
:10073000DE1EF0F03C3DEF0007FFFE00787BC3DEDD
:100740001EF0F03C3DEF000FFFFE007FFBFFDFFEE1
:10075000F0F03FFDEFE00FFFFF007FFBFFDFFEF05B
:10076000F03FFDEFE00FF9FF003E79F9CF9EF0F08A
:100770001F3DE7E01FF1FF00000000000000000047
:100780000000001F80FF007FFFFFFFFFFFFFFFFF54
:10079000FFE01C007F007FFFFFFFFEB46D888D1817
:1007A000E000001F007FFFFFFFFE95AD7DB577E005
:1007B00000000F007FFFFFFFFEA5AD9D8D19E0003B
:1007C0000006007FFFFFFFFEB5ADEDB57EE0000047
:1007D0000000000180000000000000000000038015
:1007E00000000000000000000007C0000000000042
:1007F0000000000007C00000000000000000000F23
:10080000C00000000000000000001FE00000000029
:1008100000000000001FE0000000000000000000D9
:100820003FE00000000000000000003FF00000007A
:100830000000000000007FF0000000000000001F2A
:10084000F87FF0000000000000003FFE7FF0000095
:1008500000000000003FFF7FF000000000000000EB
:100860001FFFFBE0000000000000000FFFF9FFC0C9
:100870000000000000000FFFF9FFF800000000007A
:100880000007FFF1FFFF00000000000003FC73FF02
:10089000FF80000000000001FE3FFFFF800000001D
:1008A000000000FF1E0FFF000000000000007FFEA0
:1008B0001FFC000000000000003FFFFFF8000000E8
:1008C000000000000FDFFFE0000000000000001F3C
:1008D00019FFC0000000000000003F3CFF000000C6
:1008E00000000000007E7CF8000000000000000016
:1008F0007FFE7C0000000000000000FFFFFC000005
:10090000000000000000FFFFFE00000000000000EB
:1009100000FFFFFE0000000000000001FFEFFE00EE
:1009200000000000000001FFCFFE000000000000FA
:100930000003FF07FE0000000000000003FC07FEAC
:100940000000000000000003F003FE0000000000B3
:100950000000018000FE0000000000000000000018
:100960007E000000000000000000003E00000000CB
:100970000000000000000C000000000000078000E4
:10098000FC000003C0000000078001FC000003C061
:10099000000000078001FC000003C0000000078089
:1009A00001E00000001E000000078001E0000000E0
:1009B0001E007FE3F79FF9FDE7787BDFC0FFF7FFBD
:1009C000BFFDFDFF787BDFC0FFF7FFBFFDFDFF78B8
:1009D0007BDFC0F0F787BC3DE1FF787BDE00F0F7FE
:1009E00087BC3DE1F0787BDE0000F787803DE1E0E9
:1009F000787BDE007FF7879FFDE1E0787BDE00FFFC
:100A0000F787BFFDE1E0787BDE00F0F787BC3DE1D2
:100A1000E0787BDE00F0F787BC3DE1E0787BDE002C
:100A2000F0F787BC3DE1E0787BDE00FFF7FFBFFD1C
:100A3000E1E07FFBDFC0FFF7FFBFFDE1E07FFBDF11
:100A4000C07CF3F39F3DE1E03E7BCFC0000000009F
:100A500000000000000000FFFFFFFFFFFFFFFFFF9F
:100A6000FFC0FFFFFFFFFD68DB111A31C0FFFFFF72
:100A7000FFFD2B5AFB6AEFC0FFFFFFFFFD4B5B3B07
:100A80001A33C0FFFFFFFFFD6B5BDB6AFDC05353F2
:100A9000443133303620616C6C6F636174696F6E02
:100AA000206661696C6564002200FF2100004D1C16
:100AB000E42011241FBECFEFD8E0DEBFCDBF12E08F
:100AC000A0E0B1E0EEEEF7E402C005900D92A6338F
:100AD000B107D9F723E0A6E3B2E001C01D92A43F1D
:100AE000B207E1F715E0C8E5D5E004C02197FE01A3
:100AF0000E94B322C735D107C9F70E94EA1C0C94A3
:100B0000EA230C940000089508950895AF92BF92CF
:100B1000CF92DF92EF92FF920F931F93CF93DF93C9
:100B20006C017B018B01040F151FEB015E01AE18F8
:100B3000BF08C017D10759F06991D601ED91FC911A
:100B40000190F081E02DC6010995892B79F7C50147
:100B5000DF91CF911F910F91FF90EF90DF90CF9099
:100B6000BF90AF900895FC01538D448D252F30E048
:100B7000842F90E0821B930B541710F0CF960895AA
:100B800001970895FC01918D828D981761F0A28DD7
:100B9000AE0FBF2FB11D5D968C91928D9F5F9F739D
:100BA000928F90E008958FEF9FEF0895FC01918D53
:100BB000828D981731F0828DE80FF11D858D90E0C0
:100BC00008958FEF9FEF0895FC01918D228D892F5D
:100BD00090E0805C9F4F821B91098F739927089545
:100BE00086E093E00E94E40521E0892B09F420E0EF
:100BF000822F089580E090E0892B29F00E94F00573
:100C000081110C9400000895FC01A48DA80FB92F48
:100C1000B11DA35ABF4F2C91848D90E001968F7324
:100C20009927848FA689B7892C93A089B1898C9143
:100C3000837080648C93938D848D981306C0028892
:100C4000F389E02D80818F7D80830895EF92FF925C
:100C50000F931F93CF93DF93EC0181E0888F9B8DDF
:100C60008C8D98131AC0E889F989808185FF15C099
:100C70009FB7F894EE89FF896083E889F9898081BC
:100C80008370806480839FBF81E090E0DF91CF918B
:100C90001F910F91FF90EF900895F62E0B8D10E0AD
:100CA0000F5F1F4F0F731127E02E8C8D8E110CC01C
:100CB0000FB607FCFACFE889F989808185FFF5CF67
:100CC000CE010E940406F1CFEB8DEC0FFD2FF11D3C
:100CD000E35AFF4FF0829FB7F8940B8FEA89FB89A4
:100CE00080818062CFCFCF93DF93EC01888D882302
:100CF000B9F0AA89BB89E889F9898C9185FD03C07F
:100D0000808186FD0DC00FB607FCF7CF8C9185FF63
:100D1000F2CF808185FFEDCFCE010E940406E9CF9E
:100D2000DF91CF910895833081F028F4813099F0DC
:100D30008230A9F008958730A9F08830C9F0843056
:100D4000B1F4809180008F7D03C0809180008F7707
:100D500080938000089584B58F7784BD089584B50D
:100D60008F7DFBCF8091B0008F778093B000089586
:100D70008091B0008F7DF9CFCF93DF93282F30E0A3
:100D8000F901EE57FA4F8491F901E454FA4FD491E6
:100D9000F901E652FA4FC491CC23A1F081110E94CF
:100DA0009306EC2FF0E0EE0FFF1FE858FA4FA591E5
:100DB000B491EC91ED2381E090E009F480E0DF91C3
:100DC000CF91089580E090E0FACF1F93CF93DF9307
:100DD000282F30E0F901EE57FA4F8491F901E454DD
:100DE000FA4FD491F901E652FA4FC491CC23A9F0FD
:100DF000162F81110E949306EC2FF0E0EE0FFF1FDB
:100E0000E053FA4FA591B4918FB7F894EC9111117A
:100E100008C0D095DE23DC938FBFDF91CF911F9167
:100E20000895DE2BF8CFCF93DF9390E0FC01E454DC
:100E3000FA4F249186529A4FFC0184918823C9F07D
:100E400090E0880F991FFC01EA56FA4FA591B491E2
:100E5000FC01E053FA4FC591D49161110DC09FB7C9
:100E6000F8948C91209582238C9388812823288361
:100E70009FBFDF91CF910895623051F49FB7F894EE
:100E80003C91822F809583238C93E8812E2BEFCF8A
:100E90008FB7F894EC912E2B2C938FBFEACF3FB7EE
:100EA000F8948091E4029091E502A091E602B0915D
:100EB000E70226B5A89B05C02F3F19F00196A11D9A
:100EC000B11D3FBFBA2FA92F982F8827BC01CD0194
:100ED000620F711D811D911D42E0660F771F881FF3
:100EE000991F4A95D1F708958F929F92AF92BF9222
:100EF000CF92DF92EF92FF924B015C010E944F076D
:100F00006B017C010E944F076C197D098E099F09B6
:100F1000683E734081059105A8F321E0821A91088B
:100F2000A108B10888EEC80E83E0D81EE11CF11CB0
:100F300081149104A104B10429F7FF90EF90DF9090
:100F4000CF90BF90AF909F908F9008950895EF92AB
:100F5000FF920F931F93CF93DF93EC01EC80FD8002
:100F60006E157F050CF070C057FF04C0240F351FAD
:100F700050E040E08E819F81FA01E20FF31F8E174F
:100F80009F071CF49C01241B350B121613060CF052
:100F90005BC0922F842F8695869586958E9DD00175
:100FA0008F9DB00D11246A0F7B1FAE8DBF8DA60FD4
:100FB000B71F477049F188E0841B482F682F70E005
:100FC000FB01E059FA4FE491281708F063C0621B57
:100FD00071092FEF30E002C0359527956A95E2F749
:100FE000E2230130110539F0B0F10230110561F54D
:100FF0008C91E82702C08C91E82BEC93941720F198
:101000002C813D81A20FB31FE92FE41BE83078F05B
:101010000230110521F58E2F9C9190959C932C8187
:101020003D81A20FB31F88508830B0F7E770EE23E0
:1010300059F0F0E0E859FA4FE49101301105F9F068
:1010400010F10230110519F1DF91CF911F910F912D
:10105000FF90EF900895E0958C91E823CECF81E04A
:101060000115110509F480E081959E2F8C932C8148
:101070003D81A20FB31F98509830C0F7D7CF8C9105
:10108000E82BEC93E1CFE0958C91E823FACF8C919B
:10109000E827F7CF0130110509F4ADCFE0F20230B7
:1010A000110509F4A5CFAE0DBF1DAECF0F931F9351
:1010B000CF93DF9377FF04C0260F371F70E060E007
:1010C000DC011496CD91DC91FB01E20FF31FCE17EA
:1010D000DF071CF49E01261B370B121613064CF576
:1010E000FA0157FD3796A3E0F595E795AA95E1F744
:1010F000EC9FD001ED9FB00DFC9FB00D11246A0F45
:101100007B1FDC015E96ED91FC91E60FF71F4770A7
:10111000552781E090E001C0880F4A95EAF7482FF3
:101120000130110559F0A8F02E0F3F1F02301105B4
:10113000E1F0DF91CF911F910F9108952E0F3F1F86
:10114000E217F307B1F38191DF011197842B8C93A0
:10115000F7CF80952E0F3F1FE217F30751F39191C0
:10116000DF01119798239C93F7CFE217F30709F358
:101170008191DF01119784278C93F7CF0F931F93F1
:10118000FA01DC0155964C9155974230E9F0433015
:10119000A1F1413061F514964D915C91DA01AE1BDD
:1011A000BF0BFD01E21BF30B77FD0BC0DC011696B4
:1011B0004D915C916417750724F4AB01BF010E9447
:1011C00056081F910F91089514964D915C91DA0184
:1011D000A61BB70BBD0161507109DC0116964D913C
:1011E0005C91DA01AE1BBF0BFD01E21BF30B77FD37
:1011F000E8CFAF010E94A707E4CF16964D915C910E
:10120000DA01A61BB70BBD0161507109CDCF0F9359
:101210001F93FA01DC0155964C9155974230A9F085
:10122000433091F1413019F514964D915C91DA01FA
:10123000AE1BBF0BFD013197F7FD04C0AB01BF0131
:101240000E94A7071F910F91089514964D915C91EC
:10125000DA01A61BB70BBD01DC0116964D915C911E
:10126000DA01AE1BBF0BFD013197621B730BF7FD5B
:10127000E9CFDC0116964D915C91E417F50714F760
:10128000AF010E945608DECF16964D915C91DA01AF
:10129000A61BB70BBD01621B730BCECFFC0177FD04
:1012A00064C080859185681779070CF05EC057FD92
:1012B0005CC082859385481759070CF056C0858914
:1012C0008230B1F0833029F1813041F484819581FD
:1012D000841B950BAB01BC016150710921303105B4
:1012E00009F108F443C02230310509F463C00895C0
:1012F00084819581DC01A61BB70BBD01615071098A
:1013000086819781DC01A41BB50BAD0141505109C9
:10131000E5CF86819781861B970BBA01AC014150BE
:101320005109DCCFCA0157FD0796A3E09595879533
:10133000AA95E1F7A481B5818A9F90018B9F300D1A
:101340009A9F300D1124620F731F068CF78DE02DCC
:10135000E60FF71F4770552721E030E001C0220F4C
:101360004A95EAF78081822B80830895CA0157FD50
:10137000079633E0959587953A95E1F7A481B58175
:101380008A9F90018B9F300D9A9F300D1124620F20
:10139000731F068CF78DE02DE60FF71F477055275A
:1013A00081E090E001C0880F4A95EAF7809590812E
:1013B0008923DACFCA0157FD079623E095958795D3
:1013C0002A95E1F7A481B5818A9F90018B9F300D0A
:1013D0009A9F300D1124620F731F068CF78DE02D3C
:1013E000E60FF71F4770552721E030E001C0220FBC
:1013F0004A95EAF780818227B7CF08958EBD000015
:101400000DB407FEFDCF8EB508958CBD9DBD08952A
:101410000895FC016370658B8481958126813781F5
:10142000613039F0633029F09187808733872287D4
:101430000895318720879387828708952F923F925E
:101440004F925F926F927F928F929F92AF92BF92D4
:10145000CF92DF92EF92FF920F931F93CF93DF9380
:10146000CDB7DEB769970FB6F894DEBF0FBECDBF1C
:10147000998F888F5B011A01D22E1F830E8337014B
:10148000C982DC0158962D913C915997211531055F
:1014900009F004C118968D919C91199768177907E6
:1014A0000CF0C0C11A968D919C911B974817590753
:1014B0000CF0B8C18C2C912CFB0126E0C29EE00DF3
:1014C000F11D1124F987E8871E161F060CF0AAC12A
:1014D000A40193E0440F551F9A95E1F75D874C876F
:1014E000CA01820D931D181619060CF09BC1579660
:1014F0008C91811104C05FEA5D1508F4D394A88D26
:10150000B98DED91FC9111970284F385E02DCD0109
:101510000995F5013596F98BE88BBB82AA822501E6
:1015200088E690E08A199B099C0145E0D49E200D35
:10153000311D11243B8B2A8BEA89FB89E40DF51DB3
:1015400024913D822C82D12CC12C622F70E07F87A8
:101550006E87E88DF98DA081B18120FF7CC0F98173
:10156000F13009F069C01C96ED91FC912E813F810C
:10157000A1014C0D5D1DB201888D998D0995EE85F7
:10158000FF85F595E7952E2F4FEFC41AD40A6C818D
:101590007D81680D791D7D836C8378E0C716D10449
:1015A000A1F68FEF481A580AAA81BB81A80DB91D70
:1015B000BB83AA83E889F989E415F50509F0BCCF56
:1015C0002E813F8126153705A9F0A88DB98DED91A3
:1015D000FC91B981B13009F051C0B5016B5F7F4F0B
:1015E0000088F189E02D830128E030E0A101888D99
:1015F000998D0995A88DB98DED91FC91119706886B
:10160000F789E02DCD0169960FB6F894DEBF0FBEC5
:10161000CDBFDF91CF911F910F91FF90EF90DF90A1
:10162000CF90BF90AF909F908F907F906F905F9082
:101630004F903F902F9009941E96ED91FC91EE8073
:10164000FF80840194014C815D816A817B81888D5A
:10165000998D099594CF2E813F812615370509F480
:101660008ECF3981313029F41C96ED91FC91930194
:101670007FCF1E96ED91FC917301E3CF688579854C
:10168000681979090684F785E02D73010C851D859D
:101690009401A101888D998D0995ACCFF9013496FB
:1016A0009491329745915491D91AB7E0DB9E400D41
:1016B000511D1124F90125913491398B288BFA01A0
:1016C00045905490FA01329664903196C4903296C7
:1016D0001491319604913981323008F48AC0E12E98
:1016E000012E000CFF08402F002E000C550B5987CF
:1016F0004887A88DB98DED91FC9111970284F385EF
:10170000E02DCD010995B9818B2E912CE89CC0016B
:10171000E99C900DF89C900D1124FC01EA0DFB1D35
:10172000FF87EE871C82D12C712C9B868A869101C3
:10173000200F311D07FD3A953D8B2C8BA501410FE4
:10174000511D17FD5A955F8B4E8B7C1408F052CFBC
:10175000872D90E048855985480F591F6A857B85FC
:10176000469F9001479F300D569F300D1124D9019F
:10177000A20DB31DBD87AC87EE85FF85FB83EA8391
:10178000B12CA12C2C893D89280F391F3B8B2A8B2A
:101790008C818A0DA61408F040C0877041F4C20104
:1017A0000196E889F989E40DF51DD4902C01D7FE46
:1017B00015C0A88DB98DED91FC91B981B130F1F4CE
:1017C0000484F585E02D2E813F814A895B896E89ED
:1017D0007F896A0D7B1D888D998D0995DD0CEFEF52
:1017E000AE1ABE0A2A813B81280D391D3B832A830C
:1017F000CFCF19861886F12CE12C7BCF0684F78594
:10180000E02DEE80FF80840194014C855D856A8126
:101810007B81888D998D0995E1CF3C81360D3C8384
:10182000739493CF69960FB6F894DEBF0FBECDBF09
:10183000DF91CF911F910F91FF90EF90DF90CF90AC
:10184000BF90AF909F908F907F906F905F904F90E0
:101850003F902F900895AF92BF92CF92EF92FF9258
:101860000F931F93CF93DF93EC01262F888D998DD3
:10187000009709F04FC06A30C9F41D861C868C8918
:1018800098E0899F900111248E859F85820F931F78
:101890009F878E8781E090E0DF91CF911F910F911C
:1018A000FF90EF90CF90BF90AF9008956D3091F37F
:1018B000CC888E898823C1F08C859D85E6E0CE9EFC
:1018C000800D911D1124488559854817590764F4E6
:1018D0004E855F851D861C86F8E0CF9EC0011124D1
:1018E000840F951F9F878E87EA88FB88088919894E
:1018F0004E855F856C857D85CE010E941E0A2C89F0
:101900008C859D8536E0239F800D911D11249D8738
:101910008C87C0CF6A3069F41D861C86FC01369620
:10192000E4912C898E859F85E29F800D911D112465
:10193000AFCF6D3009F4AECFFC013496349163170C
:1019400008F4A8CF3196E491E61708F4A3CFFC0180
:10195000329645915491E62FE31BFF0B37E03E9FF3
:1019600050013F9FB00C1124A40EB51EF501329614
:1019700034913196E4913323A1F1EE2391F1CC8897
:10198000F5013596E4914E89442301F10E2E000CA9
:10199000FF0BE30FF11DCE9EA001CF9E500D112431
:1019A0006C857D85460F571F688579856417750797
:1019B0006CF44E855F851D861C860696FC0184911D
:1019C000C89E400D511D11245F874E87EA88FB8811
:1019D000088919894E855F856C857D85CE010E94B9
:1019E0001E0AF5013496E4912C898C859D85E29F31
:1019F000800D911D11248BCF6F927F928F929F92B9
:101A0000AF92BF92CF92DF92EF92FF920F931F930C
:101A1000CF93DF93EC016B015A0139014801E88152
:101A2000F9810284F385E02D0995E881F981028826
:101A3000F389E02D87019301A501B601CE01099537
:101A4000A501480D591D41505109E881F9810288CD
:101A5000F389E02D9301B601CE010995E881F98162
:101A60000088F189E02D9401A501B601CE01099508
:101A7000C60CD71CB60161507109E881F981008854
:101A8000F189E02D9401A501CE010995E881F98144
:101A90000688F789E02DCE01DF91CF911F910F913C
:101AA000FF90EF90DF90CF90BF90AF909F908F907E
:101AB0007F906F9009946F927F928F929F92AF92D6
:101AC000BF92CF92DF92EF92FF920F931F93CF932B
:101AD000DF935C01EB016A01490138018701DC01F8
:101AE000ED91FC916217730719F5641675062CF0D9
:101AF000962D872D3A01C92ED82E96012619370921
:101B00002F5F3F4F048CF58DE02DA301BE01C50171
:101B10000995DF91CF911F910F91FF90EF90DF908A
:101B2000CF90BF90AF909F908F907F906F900895CF
:101B30004615570591F42617370724F0892D4B01D8
:101B4000C22FD82F9E01281939092F5F3F4F068CCD
:101B5000F78DE02DA601B401DACF0284F385E02DE4
:101B60000995D501ED91FC910488F589E02D83015B
:101B70009401A601BE01C5010995D501ED91FC9125
:101B80000688F789E02DC501DF91CF911F910F9154
:101B9000FF90EF90DF90CF90BF90AF909F908F908D
:101BA0007F906F900994EF92FF920F931F93DC0147
:101BB0001A960D911C911B9718962D913C9119978F
:101BC000ED91FC9100A0F1A1E02D7B0150E040E0FF
:101BD00070E060E009951F910F91FF90EF900895DC
:101BE0004F925F926F927F928F929F92AF92BF922D
:101BF000CF92DF92EF92FF920F931F93CF93DF93D9
:101C00006C012B015A0139014801DC01ED91FC9175
:101C10000284F385E02D0995E201640C751CD60160
:101C2000ED91FC91C615D7055CF40088F189E02D93
:101C300087019401A501BE01C60109952196EFCF48
:101C40000688F789E02DC601DF91CF911F910F9192
:101C5000FF90EF90DF90CF90BF90AF909F908F90CC
:101C60007F906F905F904F9009948F929F92AF9268
:101C7000BF92CF92DF92EF92FF920F931F93CF9379
:101C8000DF93EC015B014A016901E881F98102847B
:101C9000F385E02D099595012C0D3D1D215031094D
:101CA000E881F9810488F589E02D78018401A40197
:101CB000B501CE010995E881F9810688F789E02D03
:101CC000CE01DF91CF911F910F91FF90EF90DF90A8
:101CD000CF90BF90AF909F908F9009948F929F92DA
:101CE000AF92BF92CF92DF92EF92FF920F931F932A
:101CF000CF93DF93EC015B014A0169017801E88130
:101D0000F9810284F385E02D0995C80CD91C860160
:101D100001501109E881F9810488F589E02D9501C8
:101D2000A401B501CE010995E881F9810688F789FA
:101D3000E02DCE01DF91CF911F910F91FF90EF9099
:101D4000DF90CF90BF90AF909F908F900994EF92CB
:101D5000FF920F931F93DC01ED91FC9100A0F1A184
:101D6000E02D09951F910F91FF90EF9008950F932B
:101D70001F93DC01ED91FC91068CF78DE02D099508
:101D80001F910F9108950F931F93DC01ED91FC912A
:101D9000048CF58DE02D09951F910F910895DC01BC
:101DA000ED91FC910084F185E02D09943F924F92D2
:101DB0005F926F927F928F929F92AF92BF92CF92DB
:101DC000DF92EF92FF920F931F93CF93DF935C010B
:101DD0007B014A016901390187E0680E711C93E0BB
:101DE000759467949A95E1F72B01400E511E10E00F
:101DF00000E0312CD0E0C0E0CE0187709927330C91
:101E0000892B59F4FE0183E0F595E7958A95E1F772
:101E1000E00FF11FE80DF91D349037FE0AC021E0F4
:101E200030E0A701B5016C0F7D1F82EB93E00E94AB
:101E3000CF0E2196CC16DD06F9F68FEFE81AF80AD8
:101E4000060D171DE414F504A9F6DF91CF911F913B
:101E50000F91FF90EF90DF90CF90BF90AF909F9049
:101E60008F907F906F905F904F903F9008952F924A
:101E70003F924F925F926F927F928F929F92AF921A
:101E8000BF92CF92DF92EF92FF920F931F93CF9367
:101E9000DF9300D000D000D0CDB7DEB73C016A019F
:101EA0003E832D83FC82EB825801A41AB50AB7FE4B
:101EB00003C0B194A194B1088D809E80861A970AC0
:101EC00097FE03C09194819491088A149B045CF05E
:101ED000902F812F0D811E819D838E839C2D8D2DB2
:101EE0006B01692F782F0C151D055CF09D818E818B
:101EF0007E836D83692F782F902F812F8601C92EC5
:101F0000D82E1601201A310A2B012D813E81421A4A
:101F1000530A57FE03C0519441945108710137FE92
:101F200003C03FEFE31AF30AF594E7948D819E8195
:101F3000861797075CF5A1E0B0E0BA83A983C016C5
:101F4000D1064CF1D301ED91FC910484F585E02D8F
:101F50002B813C81A8016D817E818A149B041CF039
:101F60004D815E81B801C3010995E418F508F7FEBB
:101F70000AC02D813E8189819A81280F391F3E83B5
:101F80002D83E20CF31C0F5F1F4FD9CF2FEF3FEFD4
:101F90003A832983D4CF26960FB6F894DEBF0FBEBE
:101FA000CDBFDF91CF911F910F91FF90EF90DF9008
:101FB000CF90BF90AF909F908F907F906F905F90E9
:101FC0004F903F902F900895089585ED8093BC0029
:101FD0008091BC0084FDFCCF1092EF020895209107
:101FE0009802260F3327331F21323105ECF420915C
:101FF000EF02FC0190E080E0243069F082E0089577
:10200000A09198022191AC0148585D4FA40FB52FC3
:10201000B11D2C930196861798F380919802680F52
:102020006093980280E0089581E00895E091F102C4
:102030008091F002E81730F4F0E0E85AFD4F80811B
:1020400090E008958FEF9FEF08959091F1028091B5
:10205000F0022FEF3FEF981748F4E92FF0E0E85A2D
:10206000FD4F208130E09F5F9093F102C9010895F8
:102070008091F0029091F102891B990B0895CF9203
:10208000DF92EF92FF920F931F93CF93DF937C0128
:10209000CB018A0120910503222389F0EB016B011A
:1020A000C40ED51ECC15DD0569F06991D701ED91FF
:1020B000FC910190F081E02DC7010995F3CF642FC9
:1020C0000E94EF0FC801DF91CF911F910F91FF90F8
:1020D000EF90DF90CF900895CF93DF931F92CDB70D
:1020E000DEB76983209105032223F9F020910203D2
:1020F000203258F021E030E0FC013383228390E06D
:1021000080E00F90DF91CF91089580910303E82F35
:10211000F0E0E85CFD4F998190838F5F809303032B
:102120008093020381E090E0ECCF61E0CE01019664
:102130000E94EF0FF7CF2091020381E0213208F0D7
:1021400044C08091EF028111FCCF8091040392E0A2
:102150009093EF0291E09093EE029FEF9093BB0279
:102160001092DD022093DC02A8E3B2E0ECEBF2E097
:1021700090E0291331C01092DE029091DE02880FA8
:10218000892B8093DE028091ED02813049F5109217
:10219000ED028091DE028093BB008091BC0083FD44
:1021A000F8CF85EC8093BC008091EF028230E1F3A0
:1021B0008091BB028F3FB1F08091BB028032A1F0D1
:1021C0008091BB02803391F084E01092030310925F
:1021D00002031092050308953D9131939F5FC9CF8B
:1021E00085EEE0CF80E0F1CF82E0EFCF83E0EDCF6E
:1021F000FF920F931F93CF93DF93F82ED92FC62F03
:102200008091CE039091CF03009709F452C02091A2
:10221000D20331E0309305032093040310920303AB
:1022200010920203DC01ED91FC910190F081E02D10
:1022300060E009950F2D1D2FD1E0FF24F394C150CC
:102240008091CE039091CF03CF3F61F1D032C8F09F
:102250000E949B108091CE039091CF032091D203D6
:10226000F0920503209304031092030310920203DB
:10227000DC01ED91FC910190F081E02D60E0099589
:10228000D1E08091CE039091CF03F8016491DC01FD
:10229000ED91FC910190F081E02D0995DF5F0F5FDA
:1022A0001F4FCDCFDF91CF911F910F91FF900C94D5
:1022B0009B10E091DE03F091DF0390818091E403B5
:1022C0008095892380830F2D1D2FC15008F438C0BD
:1022D000F80184912091CC033091CD03232B29F078
:1022E0000E94FE090F5F1F4FF0CF28E030E040E86A
:1022F000E091DA03F091DB039091E203582F54232D
:10230000D9F05081952B9083E091DC03F091DD03AF
:1023100090815091E303952B9083E091DC03F09141
:10232000DD0350819091E30390959523908346952A
:1023300021503109E9F6D6CF508190959523E3CF0E
:10234000DF91CF911F910F91FF9008951F93CF932D
:10235000DF93EC018C8D9D8D009721F1162F28A124
:1023600031E030930503209304031092030310928D
:102370000203DC01ED91FC910190F081E02D60E021
:1023800009958C8D9D8DDC01ED91FC910190F08182
:10239000E02D612F09958C8D9D8DDF91CF911F913F
:1023A0000C949B10ACA5BDA59C918AA9809589230E
:1023B0008C938A8D9B8D892B31F0862FDF91CF9165
:1023C0001F910C94FE0928E030E080E8A8A5B9A58B
:1023D00098A9462F4823C1F04C91942B9C93AAA511
:1023E000BBA59C9149A9942B9C93AAA5BBA54C91F4
:1023F00099A9909594239C9386952150310931F7A2
:10240000DF91CF911F9108954C9190959423E6CF41
:10241000EF92FF920F931F93CF93DF938091CE03A0
:102420009091CF03892B09F493C02091E803309158
:10243000E9034091EA035091EB0360E074E284EF1A
:1024400090E00E949122205131094109510956958D
:102450004795379527952093B80065E088EA9AE07C
:102460000E94F8106091B603615082EB93E00E94E5
:10247000A6112091B8033091B903C901079697FDC1
:10248000079623E0959587952A95E1F72091B60365
:102490003091B703829F8001839F100D929F100D92
:1024A0001124C091D003D091D1038091CE0390919B
:1024B000CF030C0F1D1F009709F489C02091D20390
:1024C00031E030930503209304031092030310922C
:1024D0000203DC01ED91FC910190F081E02D60E4BC
:1024E0000995FF24F394EE24E3948091CE03909118
:1024F000CF030C171D0709F442C0BFE1BF15D0F48C
:102500000E949B108091CE039091CF032091D20323
:10251000E092050320930403109203031092020338
:10252000DC01ED91FC910190F081E02D60E40995D2
:10253000FF24F3948091CE039091CF036991DC0145
:10254000ED91FC910190F081E02D0995F394CDCFB0
:102550008091CC039091CD03892B31F08091E603DB
:102560009091E7030E94050AE091E003F091E103F6
:1025700090818091E5038095892380836ECF0E94AE
:102580009B108091CE039091CF03892B09F460C0FA
:102590002091EC033091ED034091EE035091EF0355
:1025A00060E074E284EF90E00E94912220513109B2
:1025B0004109510956954795379527952093B800BD
:1025C000DF91CF911F910F91FF90EF900895E091CF
:1025D000DE03F091DF0380819091E403892B8083F7
:1025E0000C171D0771F289912091CC033091CD0316
:1025F000232B19F00E94FE09F3CF28E030E040E8D9
:10260000E091DA03F091DB039091E203582F542319
:10261000D9F05081952B9083E091DC03F091DD039C
:1026200090815091E303952B9083E091DC03F0912E
:10263000DD0350819091E303909595239083469517
:1026400021503109E9F6CCCF508190959523E3CF05
:10265000E091E003F091E10380819091E503892B03
:102660008083AECF1F93CF93DF93EC01162F8C8D19
:102670009D8D892BB1F12EA93FA948AD59AD60E0E0
:1026800074E284EF90E00E949122205131094109C7
:10269000510956954795379527952093B80066EAD6
:1026A000111167EACE010E94A6118C8D9D8D892B98
:1026B00041F12AAD3BAD4CAD5DAD60E074E284EF1D
:1026C00090E00E949122205131094109510956950B
:1026D0004795379527952093B800DF91CF911F91AB
:1026E00008958A8D9B8D892B21F08CA99DA90E942C
:1026F000050AEEA5FFA590818BA98095892380838B
:10270000CECFEEA5FFA580819BA9892B8083E5CF45
:1027100090E080E008952091B8033091B903C90199
:10272000079697FD079623E0959587952A95E1F7FB
:102730002091B6033091B703829FA001839F500D73
:10274000929F500D112470E060E08091D003909131
:10275000D1030C94E323EF92FF921F93CF93DF9367
:1027600010E0C7E0D0E0EE24E394F12C60E080912B
:10277000A3030E94E5068FE99FE00197F1F700C0EF
:1027800000008091A4030E94BC06892B39F0C70188
:102790000C2E01C0880F0A94EAF7182B61E0809193
:1027A000A3030E94E5068FE99FE00197F1F700C0BF
:1027B00000002197D8F6812FDF91CF911F91FF90D4
:1027C000EF900895CF93DF9360E08091A5030E947E
:1027D000E5068FE99FE00197F1F700C000000E9435
:1027E000AB13C82FD0E0DC2FCC270E94AB13C82B33
:1027F00061E08091A5030E94E506C2FD13C083E05D
:10280000D695C7958A95E1F7BE0190E080E00E94D9
:10281000962120E030E040E85EE30E942422DF9130
:10282000CF91089560E070E080EC9FE7F8CFCF9201
:10283000DF92EF92FF920F931F93CF93DF9304E009
:1028400010E0D0E0C0E00E94E2136B017C01BE0109
:10285000DD0F880B990B0E949821A70196010E9419
:10286000F4200E9460216B01EB016AEF70E080E0D0
:1028700090E00E9474070150110929F7C601D7FCA6
:1028800003969595879595958795DF91CF911F91A3
:102890000F91FF90EF90DF90CF9008950E94DE237C
:1028A000FB0101900020E9F73197AF01461B570B60
:1028B000DC01ED91FC910280F381E02D09944F92AF
:1028C0005F926F927F92AF92BF92CF92DF92EF9220
:1028D000FF920F931F93CF93DF93CDB7DEB7A197EE
:1028E0000FB6F894DEBF0FBECDBF5C016A017B015D
:1028F000F7FE47C0DC01ED91FC910190F081E02DE5
:102900006DE209958C0122273327A9012C193D0975
:102910004E095F0919A2FE01B1967F019AE0492E86
:10292000512C612C712CCA01B901A30192010E94A2
:102930009122605DD7016E937D012115310541051E
:10294000510589F790E080E0109721F0BD01C501A5
:102950000E945014800F911FA1960FB6F894DEBF0D
:102960000FBECDBFDF91CF911F910F91FF90EF90E0
:10297000DF90CF90BF90AF907F906F905F904F901F
:102980000895AB01960119A28E010F5D1F4F8AE0D9
:10299000C82ED12CE12CF12CCA01B901A701960156
:1029A0000E949122605DF80162938F01211531052B
:1029B0004105510589F790E080E0309769F2BF0149
:1029C000C5010E945014C8CF0F931F93CF93DF937C
:1029D000EC01AB01770F660B770B0E945F148C0143
:1029E0006CE571E0CE010E945014800F911FDF91C1
:1029F000CF911F910F9108950F931F93CF93DF9362
:102A0000EC010E9450148C016CE571E0CE010E9433
:102A10005014800F911FDF91CF911F910F91089556
:102A20008091F6028823E9F08091F502882379F0FD
:102A30001092F60281E08093F3020E948B131092B1
:102A400037021092360281E08093F9020895809156
:102A5000F402882391F31092F60281E08093F2024F
:102A6000ECCF8091F302882331F081E08093F6026D
:102A70001092F302E2CF8091F2028823F1F26FE527
:102A800071E086E093E00E94FC140FB6F894A895DC
:102A900080916000886180936000109260000FBE9A
:102AA00088E198E00FB6F894A895809360000FBE77
:102AB00090936000FFCFEF92FF920F931F93CF93FD
:102AC000DF9320913602309137022817390709F435
:102AD0008DC28C0121303105F1F46CE671E086E0A5
:102AE00093E00E94FC14C2E0D0E050E1E52EF12C0E
:102AF00030E020E0A701BE0182EB93E00E944E0986
:102B00008FEFE81AF80A80E2E816F10489F72196B7
:102B1000C930D10551F7C0913602D0913702C23089
:102B2000D105E1F46AE771E086E093E00E94FC14CD
:102B300040E2E42EF12C30E020E0A701BE0182EB60
:102B400093E00E944E098FEFE81AF80A80E3E81636
:102B5000F10489F72196C930D10551F780913602E9
:102B6000909137020397F1F468E871E086E093E012
:102B70000E94FC14C2E0D0E030E3E32EF12C30E000
:102B800020E0A701BE0182EB93E00E944E098FEF87
:102B9000E81AF80A80E4E816F10489F72196C930AA
:102BA000D10551F70E9408120130110509F025C224
:102BB000C0E2D0E021E030E0AE0170E060E082EB06
:102BC00093E00E944E0921E030E0AE0161E070E048
:102BD00082EB93E00E944E092196C034D10551F753
:102BE000C0E1D0E030E020E0AE0170E060E082EBD8
:102BF00093E00E944E092196C032D10599F7C0E1B9
:102C0000D0E030E020E0AE0161E070E082EB93E0E4
:102C10000E944E092196C032D10599F7C0E1D0E05B
:102C200021E030E0AE0170E060E082EB93E00E94D2
:102C30004E0921E030E0AE0161E070E082EB93E00C
:102C40000E944E097E018FEFE81AF80A21E030E079
:102C5000A70170E060E082EB93E00E944E0921E062
:102C600030E0A70161E070E082EB93E00E944E0942
:102C700021E030E0A70162E070E082EB93E00E9487
:102C80004E097E0182E0E80EF11C21E030E0A70150
:102C900061E070E082EB93E00E944E0921E030E0B9
:102CA000A70162E070E082EB93E00E944E0921E010
:102CB00030E0A70163E070E082EB93E00E944E09F0
:102CC0007E0183E0E80EF11C21E030E0A70162E024
:102CD00070E082EB93E00E944E0921E030E0A70112
:102CE00063E070E082EB93E00E944E0921E030E067
:102CF000A70164E070E082EB93E00E944E097E0140
:102D000084E0E80EF11C21E030E0A70163E070E010
:102D100082EB93E00E944E0921E030E0A70164E0DD
:102D200070E082EB93E00E944E0921E030E0A701C1
:102D300065E070E082EB93E00E944E097E0185E041
:102D4000E80EF11C21E030E0A70164E070E082EBC6
:102D500093E00E944E0921E030E0A70165E070E0B9
:102D600082EB93E00E944E0921E030E0A70166E08B
:102D700070E082EB93E00E944E097E0186E0E80E4F
:102D8000F11C21E030E0A70165E070E082EB93E008
:102D90000E944E0921E030E0A70166E070E082EB7E
:102DA00093E00E944E0921E030E0A70167E070E067
:102DB00082EB93E00E944E097E0187E0E80EF11C51
:102DC00021E030E0A70166E070E082EB93E00E9432
:102DD0004E0921E030E0A70167E070E082EB93E06C
:102DE0000E944E0921E030E0A70168E070E082EB2C
:102DF00093E00E944E097E0188E0E80EF11C21E07C
:102E000030E0A70167E070E082EB93E00E944E099A
:102E100021E030E0A70168E070E082EB93E00E94DF
:102E20004E0921E030E0A70166E070E082EB93E01C
:102E30000E944E0921E030E0A70167E070E082EBDC
:102E400093E00E944E097E0189E0E80EF11C21E02A
:102E500030E0A70167E070E082EB93E00E944E094A
:102E600021E030E0A70165E070E082EB93E00E9492
:102E70004E0921E030E0A70166E070E082EB93E0CC
:102E80000E944E097E018AE0E80EF11C21E030E04C
:102E9000A70166E070E082EB93E00E944E0921E01A
:102EA00030E0A70164E070E082EB93E00E944E09FD
:102EB00021E030E0A70165E070E082EB93E00E9442
:102EC0004E097E018BE0E80EF11C21E030E0A70105
:102ED00065E070E082EB93E00E944E0921E030E073
:102EE000A70163E070E082EB93E00E944E0921E0CD
:102EF00030E0A70164E070E082EB93E00E944E09AD
:102F00007E018CE0E80EF11C21E030E0A70164E0D6
:102F100070E082EB93E00E944E0921E030E0A701CF
:102F200062E070E082EB93E00E944E0921E030E025
:102F3000A70163E070E082EB93E00E944E097E01FE
:102F40008DE0E80EF11C21E030E0A70163E070E0C5
:102F500082EB93E00E944E0921E030E0A70161E09E
:102F600070E082EB93E00E944E0921E030E0A7017F
:102F700062E070E082EB93E00E944E097E018EE0F9
:102F8000E80EF11C21E030E0A70162E070E082EB86
:102F900093E00E944E0921E030E0A70170E060E07C
:102FA00082EB93E00E944E0921E030E0A70161E04E
:102FB00070E082EB93E00E944E092F9621E030E012
:102FC000AE0170E060E082EB93E00E944E0921E0E8
:102FD00030E0AE0161E070E082EB93E00E944E09C8
:102FE0000E9408121093370200933602DF91CF91AE
:102FF0001F910F91FF90EF900895C0E1D0E0023053
:10300000110509F055C021E030E0AE0170E060E04C
:1030100082EB93E00E944E0921E030E0AE0161E0D6
:1030200070E082EB93E00E944E092196C032D105F8
:1030300051F79FE2E92EF12C21E030E0A70170E08A
:1030400060E082EB93E00E944E0921E030E0A701AE
:1030500061E070E082EB93E00E944E098FEFE81A86
:10306000F80A80E4E816F10439F720E2E22EF12CA8
:1030700030E020E0A70170E060E082EB93E00E9486
:103080004E098FEFE81AF80A8FE2E816F10481F78B
:1030900030E020E0AE0161E070E082EB93E00E945E
:1030A0004E092196CF32D10599F7CFE1D0E0B8CDC6
:1030B00021E030E0AE0170E060E082EB93E00E943E
:1030C0004E0921E030E0AE0161E070E082EB93E078
:1030D0000E944E092196C033D10551F780E3E82EB6
:1030E000F12C30E020E0A70170E060E082EB93E09B
:1030F0000E944E098FEFE81AF80A80E4E816F104FE
:1031000081F730E020E0AE0161E070E082EB93E017
:103110000E944E092196C034D10599F7CFE2D0E044
:103120007FCD4F925F926F927F92AF92BF92CF927C
:10313000DF92EF92FF920F931F93CF93DF938091D3
:10314000F602882309F453C08091F502882371F1B7
:103150001092BF031092BE031092C1031092C003DD
:1031600066E971E082EB93E00E94FC146CE971E087
:1031700082EB93E00E94FC1461EA71E082EB93E041
:103180000E94FC1481E090E00E945B15DF91CF91DA
:103190001F910F91FF90EF90DF90CF90BF90AF9075
:1031A0007F906F905F904F900C9408128091F40282
:1031B000882361F31092BF031092BE031092C103E3
:1031C0001092C00366E971E082EB93E00E94FC1468
:1031D0006CE971E082EB93E00E94FC1461EA71E01B
:1031E00082EB93E00E94FC1482E090E0CDCF8091CE
:1031F000F3028823A1F1C9E0D0E000E110E030E063
:1032000020E0A801BE0182EB93E00E944E090F5F0F
:103210001F4F0032110599F72196C038D10569F783
:103220001092BF031092BE031092C1031092C0030C
:1032300068EA71E082EB93E00E94FC1466EC71E0B6
:1032400082EB93E00E94501460910401709105019B
:1032500082EB93E00E94E41463EB71E0C1CF8091B4
:10326000F202882309F492CF1092BF031092BE039A
:103270001092C1031092C00369EB71E082EB93E0FE
:103280000E94FC1462EC71E082EB93E00E94501407
:10329000609104017091050182EB93E00E94E414B7
:1032A00068EC71E082EB93E00E9450146AE070E0F9
:1032B00082EB93E00E94E4146EEC71E082EB93E009
:1032C0000E94FC1483E090E00E945B150E940812AB
:1032D0008EE3E82EF12C90E2C92ED12C0E94E2134D
:1032E0000E9460212B0164ED71E086E093E00E9472
:1032F0005014B20186E093E00E94E414CCE3D0E0E5
:1033000000E210E030E020E0A801BE0182EB93E093
:103310000E944E090F5F1F4F0033110599F7219648
:10332000C038D10569F7F092BF03E092BE03D09296
:10333000C103C092C003A201550C660B770B82EB50
:1033400093E00E945F140E94081268EE73E080E030
:1033500090E00E9474070E941714EC0168E873E182
:1033600080E090E00E9474070E941714C817D907E4
:103370003CF469ED71E086E093E00E94FC14AECF6E
:103380002091040130910501281B390B12161306F8
:1033900084F7213431050CF456C064EE71E086E008
:1033A00093E00E94FC1461E08DE00E94E5060E941B
:1033B000E2130E9460212B015B0186E093E00E94F2
:1033C000E414CCE3D0E000E210E030E020E0A8011B
:1033D000BE0182EB93E00E944E090F5F1F4F003346
:1033E000110599F72196C038D10569F7F092BF030E
:1033F000E092BE03D092C103C092C003A201550C5B
:10340000660B770B82EB93E00E945F140E94081218
:10341000809104019091050180549109A816B90684
:103420005CF06DEF71E086E093E00E94FC1460E0D8
:103430008DE00E94E50652CF6AEF70E080E090E0F8
:103440000E947407B0CF6EE072E086E093E00E94C5
:10345000FC1461E08DE00E94E50660E47FE180E01D
:1034600090E00E94740760E08DE00E94E50660E352
:1034700075E780E090E00E94740730CF1F920F92B2
:103480000FB60F9211242F933F934F935F936F9337
:103490007F938F939F93AF93BF93EF93FF9386E0B8
:1034A00093E00E940406FF91EF91BF91AF919F912D
:1034B0008F917F916F915F914F913F912F910F90DD
:1034C0000FBE0F901F9018951F920F920FB60F927C
:1034D00011242F938F939F93EF93FF93E091160303
:1034E000F09117038081E0911C03F0911D0382FD90
:1034F0001BC0908180911F038F5F8F7320912003E9
:10350000821741F0E0911F03F0E0EA5FFC4F958FD6
:1035100080931F03FF91EF919F918F912F910F90B7
:103520000FBE0F901F9018958081F4CF1F920F92BD
:103530000FB60F9211242F933F938F939F93AF93C6
:10354000BF938091E0029091E102A091E202B091DC
:10355000E3023091DF0223E0230F2D3758F5019667
:10356000A11DB11D2093DF028093E0029093E10240
:10357000A093E202B093E3028091E4029091E5020D
:10358000A091E602B091E7020196A11DB11D8093C2
:10359000E4029093E502A093E602B093E702BF91A4
:1035A000AF919F918F913F912F910F900FBE0F90F0
:1035B0001F90189526E8230F0296A11DB11DD2CFAA
:1035C0001F920F920FB60F9211242F933F934F9398
:1035D0005F936F937F938F939F93AF93BF93EF937B
:1035E000FF93E0910201F09103010995FF91EF91A2
:1035F000BF91AF919F918F917F916F915F914F910B
:103600003F912F910F900FBE0F901F9018951F9212
:103610000F920FB60F9211242F933F934F935F9306
:103620006F937F938F939F93AF93BF93EF93FF938A
:10363000E0910001F09101010995FF91EF91BF9197
:10364000AF919F918F917F916F915F914F913F913A
:103650002F910F900FBE0F901F9018951F920F92F1
:103660000FB60F9211242F933F934F935F936F9355
:103670007F938F939F93AF93BF93EF93FF9380912B
:10368000B900887F803609F44AC0F0F5883209F421
:10369000A7C018F5803109F49BC0B8F4882309F459
:1036A000F9C0883009F494C0FF91EF91BF91AF91B8
:1036B0009F918F917F916F915F914F913F912F914A
:1036C0000F900FBE0F901F901895883109F488C095
:1036D000803251F78093BB0214C0803409F49DC03E
:1036E00040F48033B9F38833F9F68093BB0285EC5C
:1036F000B0C0803509F485C0883509F496C0883497
:1037000099F60E94E50FD0CF883909F48CC038F5BE
:10371000883729F050F4883611F0803729F683E095
:103720008093EF021092BA0257C0883809F47BC028
:10373000803919F0803809F0B7CF8091BA02803211
:1037400008F071C0E091BA0281E08E0F8093BA0256
:103750008091BB00F0E0E656FD4F80833DC0803B8A
:1037600039F0E0F4803A09F479C0883A09F09CCF46
:1037700084E08093EF021092990210929802E091F7
:10378000EB02F091EC0209958091980281110FC033
:1037900081E0809398021092780209C0803C09F47D
:1037A000A6CF883C09F4A3CF883B09F07DCFE091F8
:1037B000990281E08E0F80939902F0E0E858FD4F66
:1037C00080818093BB00909199028091980229C0DA
:1037D0008091DE028093BB0085EC8093BC0064CFB7
:1037E0009091DD028091DC02981758F5E091DD029E
:1037F00081E08E0F8093DD02F0E0E454FD4F808184
:10380000E9CFE091DD0281E08E0F8093DD028091AF
:10381000BB00F0E0E454FD4F80839091DD02809185
:10382000DC029817C8F285E8D8CFE091DD0281E08C
:103830008E0F8093DD028091BB00F0E0E454FD4FD9
:1038400080838091EE0281115CCF81E08093ED0254
:1038500084EA8093BC001092EF0226CF85EC80931F
:10386000BC001092EF028091BA02803230F4E091F5
:10387000BA02F0E0E656FD4F10826091BA0270E0A5
:10388000E091E902F091EA028AE992E0099510924A
:10389000BA020ACF1092BB0234CFCF93DF93E6E097
:1038A000F3E01382128248EE53E060E070E044835C
:1038B00055836683778380E191E09183808385ECF3
:1038C00090E09587848784EC90E09787868780ECEA
:1038D00090E0918B808B81EC90E0938B828B82ECDB
:1038E00090E0958B848B86EC90E0978B868B118E85
:1038F000128E138E148EA6EAB3E013961C921E92BB
:10390000129714964D935D936D937C93179782E273
:1039100091E011969C938E93E2EBF3E01382128276
:1039200020E830E03583248380E490E09783868329
:103930003187208793878287158A15861486178694
:10394000168681E0848B2FEF3FEF338B228B318BF8
:10395000208B868B178A118E108E84E391E09183E1
:103960008083138E128EB58FA48F178E168E8FEFD5
:1039700083A384A385A386A387A380E584AB15AA2C
:1039800080E89AE1A6E0B0E086AB97ABA0AFB1AF1C
:1039900080EA96E8A1E0B0E082AF93AFA4AFB5AF04
:1039A000C3EAD3E089E088838AE08A838BE0898355
:1039B00061E08AE00E94130761E088810E9413079A
:1039C00060E089810E94130761E08A81DF91CF91D5
:1039D0000C94E506789484B5826084BD84B58160DA
:1039E00084BD85B5826085BD85B5816085BD8091CA
:1039F0006E00816080936E00109281008091810042
:103A00008260809381008091810081608093810039
:103A1000809180008160809380008091B1008460FB
:103A20008093B1008091B00081608093B00080915C
:103A30007A00846080937A0080917A00826080931B
:103A40007A0080917A00816080937A0080917A0078
:103A5000806880937A001092C10061E08DE00E943E
:103A600013070FB6F894A895809160008861809341
:103A70006000109260000FBE62E082E00E941307B7
:103A800080E195E1909301018093000180916900AC
:103A90008C7F826080936900E89A60E085E00E94F4
:103AA000130760E086E00E941307E0911603F0918F
:103AB000170382E08083E0911203F09113031082D8
:103AC000E0911403F09115038FEC808310921E0394
:103AD000E0911A03F0911B0386E08083E0911803C4
:103AE000F0911903808180618083E0911803F09147
:103AF0001903808188608083E0911803F091190395
:103B0000808180688083E0911803F091190380819F
:103B10008F7D80838091D0039091D103892B11F107
:103B20000E948B132091B8033091B9038091B603A2
:103B30009091B703213231050CF04BC0B9016052AE
:103B4000710977FF02C06F5F7F4F75956795835747
:103B5000910997FD019600E210E023E730E04EEE78
:103B600055E04AC02091B8033091B903C9010796C6
:103B700097FD0796B3E095958795BA95E1F7209163
:103B8000B6033091B703AC01429FC001439F900D33
:103B9000529F900D11240E94B9229093D1038093DB
:103BA000D003892B09F0BCCF0EE81AE0F80164912C
:103BB000662341F086E093E00E9426060F5F1F4FC8
:103BC000892BA1F76CE571E086E093E00E94501428
:103BD000FFCFB9016054710977FF02C06F5F7F4F5B
:103BE000759567958255910997FD019600E410E05F
:103BF00022E530E04EEC57E0959587950E94D60E71
:103C000082E08093D3038091CE039091CF03892BE0
:103C100009F48FC18CE38093D2031092F1021092C9
:103C2000F00210920303109202031092EF0281E05F
:103C30008093EE021092ED0261E082E10E94E506BF
:103C400061E083E10E94E5068091B9008E7F809358
:103C5000B9008091B9008D7F8093B90088E480938A
:103C6000B80085E48093BC0084E895E09093EC0272
:103C70008093EB0285E895E09093EA028093E90255
:103C80008091D90387FD1EC061E00E94130761E0A7
:103C90008091D9030E94E50661E070E080E090E049
:103CA0000E94740760E08091D9030E94E5066AE0F3
:103CB00070E080E090E00E94740761E08091D90399
:103CC0000E94E5068091CE039091CF03892B09F4E1
:103CD000EFC12091E8033091E9034091EA0350914C
:103CE000EB0360E074E284EF90E00E9491222051A7
:103CF00031094109510956954795379527952093E4
:103D0000B80064E088EB95E00E94F8106091B80379
:103D1000615082EB93E00E94A61164E084EB95E091
:103D20000E94F8108091D30360E1813009F064E1D2
:103D300082EB93E00E94A61164E080EB95E00E9484
:103D4000F8108091B6039091B7038038910509F07F
:103D5000DAC18091B8039091B9038032910509F0DE
:103D6000BEC164E08CEA95E00E94F81069ED82EB38
:103D700093E00E94A6118091D30362E2813009F0A2
:103D800061EF82EB93E00E94A61166E080EA95E085
:103D90000E94F8108091CE039091CF03892B09F4F3
:103DA000C9C12091EC033091ED034091EE03509195
:103DB000EF0360E074E284EF90E00E9491222051D2
:103DC0003109410951095695479537952795209313
:103DD000B80064EF71E080E090E00E9474070E94F8
:103DE0008B1382E08093C60381E090E09093C5033B
:103DF0008093C4039093C3038093C2031092BF03C4
:103E00001092BE031092C1031092C0038093F60279
:103E10008093F5021092F4021092F3021092F202D3
:103E20000E94911885E00E94BC069093FF02809347
:103E3000FE028091FC029091FD029093FB02809320
:103E4000FA0200E010E0C1E085E00E94BC067C01BF
:103E500090930103809300038091FE029091FF02F2
:103E6000E816F90641F186E00E94BC062091FC02AA
:103E70003091FD02E816F90609F466C12F5F3F4F45
:103E80003093FD022093FC022091FA023091FB0254
:103E90008091FC029091FD02A901481B590B423010
:103EA00051050CF454C19093FB028093FA02C09325
:103EB000F902C093F8028091F902882331F18091D0
:103EC000F8026CE272E0811102C064E272E086E006
:103ED00093E00E94FC148091F602882309F456C1F5
:103EE0008091F502882309F442C18091F802882369
:103EF00021F01092F502C093F4020E9491181092E2
:103F0000F8021092F7021092F9028091000390914A
:103F100001039093FF028093FE020115110509F43D
:103F200093CF0E94F005882309F48ECF0E940000F1
:103F30008BCF61E08091D7030E94130761E08091ED
:103F4000D8030E9413078091D703082E000C990B09
:103F5000FC01E652FA4FE491F0E0EE0FFF1FE05350
:103F6000FA4F259134913093DF032093DE03FC0157
:103F7000E454FA4FE491E093E4038091D803082ECF
:103F8000000C990BFC01E652FA4FE491F0E0EE0FC1
:103F9000FF1FE053FA4FA591B491B093E103A093B2
:103FA000E003FC01E454FA4FE491E093E5038C91C3
:103FB000E82BEC938091CC039091CD03892B09F4ED
:103FC00034C0CFB7F8948091E802811127C0E4EEA5
:103FD000F5E08491E6ECF5E09491E82FF0E0EE0F47
:103FE000FF1FEA56FA4FA591B491EC91E92321F411
:103FF00061E08AE00E94E50661E08AE00E94130722
:104000008CB580618CBD8CB580648CBD61E08DE029
:104010000E94130761E08BE00E9413078091E80281
:104020008F5F8093E802CFBF2BCE61E08091D503F4
:104030000E94130761E08091D6030E9413078091CC
:10404000D503082E000C990BFC01E652FA4FE491BF
:10405000F0E0EE0FFF1FE053FA4F259134913093BB
:10406000DB032093DA03FC01E454FA4FE491E0937C
:10407000E2038091D603082E000C990BFC01E65256
:10408000FA4FE491F0E0EE0FFF1FE053FA4FA591D5
:10409000B491B093DD03A093DC03FC01E454FA4F28
:1040A000E491E093E3038C91E095E823EC93E8CD71
:1040B0008091CC039091CD03892B31F08091E60360
:1040C0009091E7030E94050AE091E003F091E1037B
:1040D00090818091E50380958923808312CE80347E
:1040E000910509F043CE63E089EA95E00E94F8105B
:1040F0008091D3036FE9813009F06FEC82EB93E09C
:104100000E94A61133CE8036910509F02FCE809102
:10411000B8039091B903409709F028CE63E086EA8E
:1041200095E00E94F8108091D30360E1813031F373
:104130006FEAE4CFE091E003F091E1038081909198
:10414000E503892B808345CE2150310999CEAC01FE
:10415000421B530B423051050CF4ADCE9093FB0241
:104160008093FA02C093F902C093F702A4CE809123
:10417000F402882309F4C1CE8091F702882309F460
:10418000BCCEC093F5021092F402B7CE8091F30238
:10419000882309F4B2CE8091F802882351F08091EF
:1041A000040190910501029690930501809304010A
:1041B000A4CE8091F702882309F49FCE8091040158
:1041C000909105010297F0CF84E391E09093B303BF
:1041D0008093B2038091D0039091D103009711F0A6
:1041E0000C94552308955058BB27AA270E940B21F1
:1041F0000C94EA210E94DC2138F00E94E32120F097
:1042000039F49F3F19F426F40C94D9210EF4E0956B
:10421000E7FB0C94D321E92F0E94FB2158F3BA1736
:10422000620773078407950720F079F4A6F50C94CC
:104230001D220EF4E0950B2EBA2FA02D0B01B90113
:1042400090010C01CA01A0011124FF27591B99F00C
:10425000593F50F4503E68F11A16F040A22F232F18
:10426000342F4427585FF3CF469537952795A79568
:10427000F0405395C9F77EF41F16BA0B620B730B0F
:10428000840BBAF09150A1F0FF0FBB1F661F771F80
:10429000881FC2F70EC0BA0F621F731F841F48F435
:1042A000879577956795B795F7959E3F08F0B0CFBE
:1042B0009395880F08F09927EE0F979587950895A5
:1042C0000E9467216894B1110C941E2208950E94E7
:1042D000032288F09F5798F0B92F9927B751B0F073
:1042E000E1F0660F771F881F991F1AF0BA95C9F77A
:1042F00014C0B13091F00E941D22B1E008950C94D9
:104300001D22672F782F8827B85F39F0B93FCCF38B
:10431000869577956795B395D9F73EF490958095F6
:10432000709561957F4F8F4F9F4F0895E89409C016
:1043300097FB3EF490958095709561957F4F8F4FD8
:104340009F4F9923A9F0F92F96E9BB279395F695EE
:10435000879577956795B795F111F8CFFAF4BB0F6C
:1043600011F460FF1BC06F5F7F4F8F4F9F4F16C0D0
:10437000882311F096E911C0772321F09EE8872F5A
:10438000762F05C0662371F096E8862F70E060E016
:104390002AF09A95660F771F881FDAF7880F96958F
:1043A000879597F9089597F99F6780E870E060E036
:1043B00008959FEF80EC089500240A9416161706BE
:1043C00018060906089500240A9412161306140606
:1043D00005060895092E0394000C11F4882352F069
:1043E000BB0F40F4BF2B11F460FF04C06F5F7F4F21
:1043F0008F4F9F4F089557FD9058440F551F59F008
:104400005F3F71F04795880F97FB991F61F09F3FC1
:1044100079F087950895121613061406551FF2CFEA
:104420004695F1DF08C0161617061806991FF1CF3A
:1044300086957105610508940895E894BB27662761
:104440007727CB0197F908950E9437220C94EA212F
:104450000E94DC2138F00E94E32120F0952311F026
:104460000C94D3210C94D92111240C941E220E9467
:10447000FB2170F3959FC1F3950F50E0551F629F8C
:10448000F001729FBB27F00DB11D639FAA27F00DAD
:10449000B11DAA1F649F6627B00DA11D661F829FD4
:1044A0002227B00DA11D621F739FB00DA11D621FB9
:1044B000839FA00D611D221F749F3327A00D611DD6
:1044C000231F849F600D211D822F762F6A2F1124B8
:1044D0009F5750409AF0F1F088234AF0EE0FFF1FEB
:1044E000BB1F661F771F881F91505040A9F79E3F42
:1044F000510580F00C94D3210C941E225F3FE4F30D
:10450000983ED4F3869577956795B795F795E79597
:104510009F5FC1F7FE2B880F911D9695879597F9A0
:104520000895A1E21A2EAA1BBB1BFD010DC0AA1FF4
:10453000BB1FEE1FFF1FA217B307E407F50720F00C
:10454000A21BB30BE40BF50B661F771F881F991F87
:104550001A9469F760957095809590959B01AC01D0
:10456000BD01CF010895EE0FFF1F0590F491E02DDE
:1045700009940F931F93CF93DF938230910510F42A
:1045800082E090E0E091F203F091F30330E020E06C
:10459000B0E0A0E0309799F42115310509F44AC044
:1045A000281B390B24303105D8F58A819B81611590
:1045B000710589F1FB0193838283FE0111C0408163
:1045C00051810281138148175907E0F048175907B4
:1045D00099F4109761F012960C93129713961C930E
:1045E0003296CF01DF91CF911F910F9108950093E3
:1045F000F2031093F303F4CF2115310551F0421764
:10460000530738F0A901DB019A01BD01DF01F80170
:10461000C1CFEF01F9CF9093F3038093F203CDCF95
:10462000FE01E20FF31F81939193225031093983E8
:104630002883D7CF2091F0033091F103232B41F44D
:1046400020910801309109013093F1032093F00388
:1046500020910601309107012115310541F42DB754
:104660003EB740910A0150910B01241B350BE0919C
:10467000F003F091F103E217F307A0F42E1B3F0BB8
:104680002817390778F0AC014E5F5F4F24173507C4
:1046900048F04E0F5F1F5093F1034093F003819356
:1046A00091939FCFF0E0E0E09CCFCF93DF93009712
:1046B000E9F0FC01329713821282A091F203B091CB
:1046C000F303ED0130E020E01097A1F42081318167
:1046D000820F931F2091F0033091F10328173907BF
:1046E00009F061C0F093F103E093F003DF91CF9103
:1046F0000895EA01CE17DF07E8F54A815B819E0144
:1047000041155105B1F7E901FB83EA8349915991BC
:10471000C40FD51FEC17FD0761F4808191810296CB
:10472000840F951FE90199838883828193819B83FC
:104730008A83F0E0E0E012968D919C9113970097A8
:10474000B9F52D913C911197CD010296820F931FDF
:104750002091F0033091F1032817390739F630978B
:1047600051F51092F3031092F203B093F103A0936A
:10477000F003BCCFD383C28340815181840F951F46
:10478000C817D90761F44E5F5F4F88819981480F40
:10479000591F518340838A819B8193838283211592
:1047A000310509F0B0CFF093F303E093F2039ECF0D
:1047B000FD01DC01C0CF13821282D7CF81E090E0EF
:1047C000F8940C94EA23DC0101C06D9341505040F1
:1047D000E0F7089515E0C8E5D5E004C0FE010E94A9
:0E47E000B3222196C935D107C9F7F894FFCF4F
:1047EE00A607A60778000000F40380000000000072
:1047FE0026068605B3057306E405C205D605000038
:10480E0000006C103F108813830538102510161009
:10481E00000000002B0C86058813E40F4E0983055B
:10482E00CF0EA70EC30EB70E370F8305090A32132C
:10483E00BE080709F00DD30D5B0DFC0C0D0A0052DE
:10484E0045534554494E47204D4355004C617374B2
:10485E0020506F73203D3D2031004C617374205009
:10486E006F73203D3D2032004C61737420506F7386
:10487E00203D3D203300204D61696E00205365744C
:10488E0000205374617274002053657420506F6958
:10489E006E740020446F6E65002048656174696E09
:1048AE0067002053503A20002043543A20002053F2
:1048BE00746F700043203D2000446F204E6F74686B
:1048CE00696E67005475726E696E67204F6E20496F
:1048DE00726F6E20666F72204C6F6E670054757229
:1048EE006E696E67204F66662049726F6E00547552
:1048FE00726E696E67204F6E2049726F6E2053681C
:10490E006F727400436F756E74657220436C6F63C3
:06491E006B576973650090
:00000001FF
